:100000000C942A000C943F000C943F000C943F0089
:100010000C943F000C943F000C943F000C943F0064
:100020000C943F000C943F000C943F000C943F0054
:100030000C943F000C943F000C943F000C943F0044
:100040000C943F000C943F000C943F000C943F0034
:100050000C943F0011241FBECFE5D4E0DEBFCDBF1E
:1000600010E0A0E6B0E0E0EBFFE102C005900D92E9
:10007000AE36B107D9F70E947C0F0C94D60F0C94C2
:100080000000EF92FF920F931F937B018C0120E001
:1000900030E040E05FE40E94ED0388238CF0C8016B
:1000A000B70120E030E040E05FE40E94B9010E9427
:1000B0004D049B01AC01205030404040504806C0E8
:1000C000C801B7010E944D049B01AC01B901CA01EE
:1000D0001F910F91FF90EF900895A0E0B0E0E3E74B
:1000E000F0E00C949F0FDC012B01FA019C919230FF
:1000F00008F439C1EB018881823008F433C19430AF
:1001000069F4843009F02FC111969C91119789816F
:10011000981709F428C1A6E6B0E025C1843009F497
:1001200021C18230A9F4923009F01DC19A01AD01BC
:1001300088E0EA010990AE01E90109929E0181502F
:10014000C1F7E201898111969C918923818308C1BD
:10015000923009F407C112962D903C901397EB0151
:100160008A819B811496AD90BD90CD90DC901797BD
:10017000EC80FD800E811F819101281B390BB90194
:1001800037FF04C066277727621B730B6032710547
:100190000CF061C0121613066CF537014801062EEB
:1001A00004C096948794779467940A94D2F721E0D8
:1001B00030E040E050E004C0220F331F441F551FC1
:1001C0006A95D2F721503040404050402E213F21C7
:1001D00040235123211531054105510521F021E02E
:1001E00030E040E050E079018A01E628F72808294C
:1001F00019293CC0232BD1F1260E371E35014601AB
:10020000062E04C096948794779467940A94D2F744
:1002100021E030E040E050E004C0220F331F441FD3
:10022000551F6A95D2F721503040404050402A2156
:100230003B214C215D21211531054105510521F05E
:1002400021E030E040E050E059016A01A628B728DB
:10025000C828D9280BC0821593052CF01C01AA24AC
:10026000BB24650103C0EE24FF24870111969C91F5
:10027000D20111968C91981709F445C0992339F051
:10028000A80197012A193B094C095D0906C0A6017E
:1002900095012E193F09400B510B57FD08C01182E3
:1002A0003382228224833583468357831DC081E0B5
:1002B00081833382228288279927DC01821B930B5A
:1002C000A40BB50B84839583A683B7830DC0220F3F
:1002D000331F441F551F24833583468357838281F0
:1002E000938101979383828324813581468157814D
:1002F000DA01C9010197A109B1098F5F9F4FAF4F83
:10030000BF4328F30BC0918333822282EA0CFB1C8B
:100310000C1D1D1DE482F5820683178383E0808314
:10032000248135814681578157FF1AC0C901AA2708
:1003300097FDA095BA2F81709070A070B0705695FF
:10034000479537952795822B932BA42BB52B848328
:100350009583A683B7838281938101969383828359
:10036000DF0101C0D201CD01CDB7DEB7E2E10C94CF
:10037000BB0FA0E2B0E0EFEBF1E00C94AB0F6983B0
:100380007A838B839C832D833E834F835887E9E058
:10039000EE2EF12CEC0EFD1ECE010196B7010E944F
:1003A00076058E010F5E1F4FCE010596B8010E94A3
:1003B00076058A8991E089278A8BC701B801AE0149
:1003C000475E5F4F0E946D000E94A104A096E6E088
:1003D0000C94C70FA0E2B0E0E0EFF1E00C94AB0F9B
:1003E00069837A838B839C832D833E834F835887D5
:1003F000F9E0EF2EF12CEC0EFD1ECE010196B701B7
:100400000E9476058E010F5E1F4FCE010596B80142
:100410000E947605C701B801AE01475E5F4F0E949A
:100420006D000E94A104A096E6E00C94C70FA0E224
:10043000B0E0EDE1F2E00C949F0F69837A838B8347
:100440009C832D833E834F835887CE010196BE0146
:10045000675F7F4F0E947605CE010596BE016F5EF5
:100460007F4F0E9476059985923088F08989823085
:10047000C8F0943019F4823051F404C0843029F467
:10048000923081F486E690E0C6C0923049F420E0D4
:100490009A858A89981321E02A87CE010996BBC0E4
:1004A000823049F420E09A858A89981321E02A8BCA
:1004B000CE014196B0C02D843E844F8458886D880B
:1004C0007E888F88988CEE24FF248701AA24BB2481
:1004D000650140E050E060E070E0E0E0F0E0C10184
:1004E00081709070892BE9F0E60CF71C081D191D2E
:1004F0009A01AB012A0D3B1D4C1D5D1D80E090E073
:10050000A0E0B0E0E614F7040805190520F481E046
:1005100090E0A0E0B0E0BA01A901480F591F6A1F9E
:100520007B1FAA0CBB1CCC1CDD1C97FE08C081E005
:1005300090E0A0E0B0E0A82AB92ACA2ADB2A3196C6
:10054000E032F10549F0660C771C881C991C569422
:10055000479437942794C3CFFA85EA892B893C893D
:100560008B859C85280F391F2E5F3F4F17C0CA010E
:1005700081709070892B61F016950795F794E79438
:1005800080E090E0A0E0B0E8E82AF92A0A2B1B2BD3
:1005900076956795579547952F5F3F4F77FDE7CF46
:1005A0000CC0440F551F661F771F17FD4160EE0CEE
:1005B000FF1C001F111F21503040403090E05907B0
:1005C00090E0690790E4790760F32B8F3C8FDB01A3
:1005D000CA018F779070A070B07080349105A1052A
:1005E000B10561F447FD0AC0E114F10401051105EC
:1005F00029F0405C5F4F6F4F7F4F40781A8EFE1797
:1006000011F081E08A8F4D8F5E8F6F8F78A383E02A
:10061000898FCE0149960E94A104A096E2E10C9434
:10062000BB0FA8E1B0E0E7E1F3E00C94A70F69830A
:100630007A838B839C832D833E834F835887B9E0D5
:10064000EB2EF12CEC0EFD1ECE010196B7010E949F
:1006500076058E010F5E1F4FCE010596B8010E94F0
:1006600076052985223008F47EC03989323010F4AD
:10067000B8017CC08A859A8989278A87243011F03D
:10068000223031F4231709F06EC066E670E06EC0C8
:10069000343039F41D861E861F86188A1C861B86F8
:1006A00004C0323021F484E08987B7015FC02B8514
:1006B0003C858B899C89281B390B3C872B87ED84D3
:1006C000FE840F851889AD88BE88CF88D88CEA143F
:1006D000FB040C051D0540F4EE0CFF1C001F111F50
:1006E000215030403C872B8720E030E040E050E054
:1006F00080E090E0A0E0B0E460E070E0EA14FB0489
:100700000C051D0540F0282B392B4A2B5B2BEA18D2
:10071000FB080C091D09B695A79597958795EE0CD2
:10072000FF1C001F111F6F5F7F4F6F31710531F785
:10073000DA01C9018F779070A070B0708034910594
:10074000A105B10561F427FD0AC0E114F10401051A
:10075000110529F0205C3F4F4F4F5F4F20782D87C8
:100760003E874F87588BBE01675F7F4FCB010E944A
:10077000A1046896EAE00C94C30FA8E1B0E0E3ECB2
:10078000F3E00C94AB0F69837A838B839C832D8376
:100790003E834F83588789E0E82EF12CEC0EFD1E36
:1007A000CE010196B7010E9476058E010F5E1F4FA4
:1007B000CE010596B8010E9476058985823040F009
:1007C0008989823028F0C701B8010E94EE0501C076
:1007D0008FEF6896E6E00C94C70FA8E1B0E0E3EF76
:1007E000F3E00C94AB0F69837A838B839C832D8316
:1007F0003E834F83588789E0E82EF12CEC0EFD1ED6
:10080000CE010196B7010E9476058E010F5E1F4F43
:10081000CE010596B8010E9476058985823040F0A8
:100820008989823028F0C701B8010E94EE0501C015
:100830008FEF6896E6E00C94C70FA8E1B0E0E3E222
:10084000F4E00C94AB0F69837A838B839C832D83B4
:100850003E834F83588789E0E82EF12CEC0EFD1E75
:10086000CE010196B7010E9476058E010F5E1F4FE3
:10087000CE010596B8010E9476058985823040F048
:100880008989823028F0C701B8010E94EE0501C0B5
:1008900081E06896E6E00C94C70FACE0B0E0E3E5D9
:1008A000F4E00C94AF0F69837A838B839C83CE0131
:1008B0000196BE016B5F7F4F0E9476058D8182306D
:1008C00061F1823050F1843021F48E81882351F11E
:1008D0002EC02F81388537FD20C06E812F31310524
:1008E0001CF06623F9F023C08EE190E0821B930B8D
:1008F00029853A854B855C8504C056954795379583
:1009000027958A95D2F76623B1F05095409530959A
:1009100021953F4F4F4F5F4F0EC020E030E040E049
:1009200050E009C02FEF3FEF4FEF5FE704C020E03A
:1009300030E040E050E8B901CA012C96E2E00C94A6
:10094000CB0FDF92EF92FF920F931F93FC01E48095
:10095000F58006811781D1808081823048F480E063
:1009600090E0A0E1B0E0E82AF92A0A2B1B2BA5C0F1
:10097000843009F49FC0823021F4EE24FF248701E3
:1009800005C0E114F1040105110519F4E0E0F0E0FF
:1009900096C0628173819FEF623879070CF05BC06B
:1009A00022E83FEF261B370B2A3131052CF020E0DF
:1009B00030E040E050E02AC0B801A701022E04C098
:1009C00076956795579547950A94D2F781E090E020
:1009D000A0E0B0E004C0880F991FAA1FBB1F2A9592
:1009E000D2F70197A109B1098E219F21A023B1233C
:1009F0000097A105B10521F081E090E0A0E0B0E012
:100A00009A01AB01282B392B4A2B5B2BDA01C90148
:100A10008F779070A070B07080349105A105B105FA
:100A200039F427FF09C0205C3F4F4F4F5F4F04C090
:100A3000215C3F4F4F4F5F4FE0E0F0E02030A0E0FF
:100A40003A07A0E04A07A0E45A0710F0E1E0F0E01E
:100A500079018A0127C06038710564F5FB01E1580E
:100A6000FF4FD801C7018F779070A070B0708034AD
:100A70009105A105B10539F4E7FE0DC080E490E0D1
:100A8000A0E0B0E004C08FE390E0A0E0B0E0E80EAA
:100A9000F91E0A1F1B1F17FF05C016950795F7942F
:100AA000E794319687E016950795F794E7948A9531
:100AB000D1F705C0EE24FF248701EFEFF0E06E2FA1
:100AC000679566276795902F9F77D794DD24D794F5
:100AD0008E2F8695492F462B582F5D29B701CA01C5
:100AE0001F910F91FF90EF90DF900895FC01DB01C3
:100AF000408151812281622F6F7770E0221F22276F
:100B0000221F9381892F880F822B282F30E0991F75
:100B10009927991F11969C93119721153105A9F5D5
:100B2000411551056105710511F482E037C082E875
:100B30009FEF13969C938E9312979A01AB0167E0F7
:100B4000220F331F441F551F6A95D1F783E08C9302
:100B50000DC0220F331F441F551F12968D919C917B
:100B60001397019713969C938E931297203080E0F1
:100B7000380780E0480780E4580758F314962D930F
:100B80003D934D935C93179708952F3F310579F46A
:100B9000411551056105710519F484E08C930895A0
:100BA00064FF03C081E08C9312C01C9210C02F57C9
:100BB000304013963C932E93129783E08C9387E0FA
:100BC000440F551F661F771F8A95D1F770641496DE
:100BD0004D935D936D937C93179708951F93DC015C
:100BE000FB019C91923008F447C08081823008F468
:100BF00043C0943051F411961C91843099F5818151
:100C0000682F70E0611B71093FC0843021F0923081
:100C100031F48230B9F18181882389F12DC0119698
:100C20001C9111978230F1F081811817D9F4129636
:100C30002D913C911397828193818217930794F0B1
:100C400028173907BCF014968D919D910D90BC9199
:100C5000A02D2481358146815781281739074A07FD
:100C60005B0718F4112341F00AC082179307A40709
:100C7000B50740F4112319F061E070E005C06FEF93
:100C80007FEF02C060E070E0CB011F910895DF9319
:100C9000CF93CDB7DEB7EAE3F0E087E08083E7E308
:100CA000F0E01082E4E3F0E01082E1E3F0E08FEFA7
:100CB0008083EBE3F0E01082E8E3F0E01082E5E30C
:100CC000F0E01082E2E3F0E01082CF91DF9108952E
:100CD000DF93CF93CDB7DEB72E970FB6F894DEBF74
:100CE0000FBECDBF8A836B834C8319828A81843087
:100CF00008F015C18B81883008F011C18C818823E0
:100D000021F08C81813009F00AC18A81282F30E0DE
:100D10003E872D878D859E858130910509F451C0D0
:100D20002D853E85223031052CF48D859E850097DA
:100D300071F0F7C02D853E852230310509F47BC066
:100D40008D859E858330910509F4AFC0EAC08C8102
:100D5000282F30E03C872B878B859C850097C9F036
:100D60002B853C852130310549F5AAE3B0E0EAE363
:100D7000F0E08081482F8B81282F30E081E090E0E7
:100D8000022E02C0880F991F0A94E2F7842B8C93DD
:100D9000C8C0AAE3B0E0EAE3F0E08081482F8B818D
:100DA000282F30E081E090E0022E02C0880F991FCA
:100DB0000A94E2F7809584238C93B3C081E0898301
:100DC000B0C08C81282F30E03A87298789859A85A1
:100DD0000097C9F029853A852130310549F5A7E307
:100DE000B0E0E7E3F0E08081482F8B81282F30E0EE
:100DF00081E090E0022E02C0880F991F0A94E2F76A
:100E0000842B8C938EC0A7E3B0E0E7E3F0E0808111
:100E1000482F8B81282F30E081E090E0022E02C025
:100E2000880F991F0A94E2F7809584238C9379C0E8
:100E300081E0898376C08C81282F30E038872F832A
:100E40008F8198850097C9F02F8138852130310531
:100E500049F5A4E3B0E0E4E3F0E08081482F8B8122
:100E6000282F30E081E090E0022E02C0880F991F09
:100E70000A94E2F7842B8C9354C0A4E3B0E0E4E33B
:100E8000F0E08081482F8B81282F30E081E090E0D6
:100E9000022E02C0880F991F0A94E2F780958423DE
:100EA0008C933FC081E089833CC08C81282F30E047
:100EB0003E832D838D819E810097C9F02D813E81D7
:100EC0002130310549F5A1E3B0E0E1E3F0E08081B4
:100ED000482F8B81282F30E081E090E0022E02C065
:100EE000880F991F0A94E2F7842B8C931AC0A1E310
:100EF000B0E0E1E3F0E08081482F8B81282F30E0E3
:100F000081E090E0022E02C0880F991F0A94E2F758
:100F1000809584238C9305C081E0898302C081E0A1
:100F2000898389812E960FB6F894DEBF0FBECDBFA0
:100F3000CF91DF910895DF93CF93CDB7DEB72E9792
:100F40000FB6F894DEBF0FBECDBF8A836B834C8390
:100F500019828A81843008F015C18B81883008F0AD
:100F600011C18C81882321F08C81813009F00AC164
:100F70008A81282F30E03E872D878D859E858130A0
:100F8000910509F451C02D853E85223031052CF4A0
:100F90008D859E85009771F0F7C02D853E852230A6
:100FA000310509F47BC08D859E858330910509F458
:100FB000AFC0EAC08C81282F30E03C872B878B851F
:100FC0009C850097C9F02B853C852130310549F57A
:100FD000ABE3B0E0EBE3F0E08081482F8B81282F7A
:100FE00030E081E090E0022E02C0880F991F0A9441
:100FF000E2F7842B8C93C8C0ABE3B0E0EBE3F0E006
:101000008081482F8B81282F30E081E090E0022EF4
:1010100002C0880F991F0A94E2F7809584238C936D
:10102000B3C081E08983B0C08C81282F30E03A873B
:10103000298789859A850097C9F029853A852130C5
:10104000310549F5A8E3B0E0E8E3F0E08081482FFE
:101050008B81282F30E081E090E0022E02C0880FC3
:10106000991F0A94E2F7842B8C938EC0A8E3B0E01A
:10107000E8E3F0E08081482F8B81282F30E081E089
:1010800090E0022E02C0880F991F0A94E2F7809523
:1010900084238C9379C081E0898376C08C81282F4A
:1010A00030E038872F838F8198850097C9F02F8192
:1010B00038852130310549F5A5E3B0E0E5E3F0E0FE
:1010C0008081482F8B81282F30E081E090E0022E34
:1010D00002C0880F991F0A94E2F7842B8C9354C0A6
:1010E000A5E3B0E0E5E3F0E08081482F8B81282F75
:1010F00030E081E090E0022E02C0880F991F0A9430
:10110000E2F7809584238C933FC081E089833CC0C3
:101110008C81282F30E03E832D838D819E81009726
:10112000C9F02D813E812130310549F5A2E3B0E0BF
:10113000E2E3F0E08081482F8B81282F30E081E0CE
:1011400090E0022E02C0880F991F0A94E2F7842BC8
:101150008C931AC0A2E3B0E0E2E3F0E08081482F74
:101160008B81282F30E081E090E0022E02C0880FB2
:10117000991F0A94E2F7809584238C9305C081E03F
:10118000898302C081E0898389812E960FB6F89405
:10119000DEBF0FBECDBFCF91DF910895DF93CF9318
:1011A000CDB7DEB728970FB6F894DEBF0FBECDBF20
:1011B0008B836C835E834D831A828B81843008F02D
:1011C000AEC08C81883008F0AAC08D819E810097C6
:1011D00009F4A5C08B81282F30E038872F838F81B9
:1011E000988581309105C1F12F81388522303105F4
:1011F0002CF48F819885009771F093C02F813885EA
:101200002230310509F449C08F81988583309105DA
:1012100009F464C086C0ABE3B0E0EBE3F0E08081AA
:10122000482F8C81282F30E081E090E0022E02C010
:10123000880F991F0A94E2F7842B8C938C918983F1
:101240008981813021F4ED81FE8110826AC0ED81B7
:10125000FE8181E0808365C0A8E3B0E0E8E3F0E0D0
:101260008081482F8C81282F30E081E090E0022E91
:1012700002C0880F991F0A94E2F7842B8C938C91FB
:1012800089838981813021F4ED81FE81108249C0FA
:10129000ED81FE8181E0808344C0A5E3B0E0E5E319
:1012A000F0E08081482F8C81282F30E081E090E0B1
:1012B000022E02C0880F991F0A94E2F7842B8C93A8
:1012C0008C9189838981813021F4ED81FE811082A6
:1012D00028C0ED81FE8181E0808323C0A2E3B0E0DD
:1012E000E2E3F0E08081482F8C81282F30E081E01C
:1012F00090E0022E02C0880F991F0A94E2F7842B17
:101300008C938C9189838981813021F4ED81FE81D8
:10131000108207C0ED81FE8181E0808302C081E000
:101320008A838A8128960FB6F894DEBF0FBECDBFA0
:10133000CF91DF910895DF93CF93CDB7DEB72D978F
:101340000FB6F894DEBF0FBECDBF8A836B831982C0
:101350008A81843008F087C08B81882321F08B81BB
:10136000813009F080C08A81282F30E03D872C87AA
:101370008C859D858130910571F12C853D852230CC
:1013800031052CF48C859D85009769F069C02C850A
:101390003D8522303105B1F18C859D8583309105E5
:1013A00009F447C05DC08B81282F30E03B872A8736
:1013B0008A859B85009759F02A853B852130310528
:1013C00009F053C0EBE3F0E08FEF80834EC0EBE316
:1013D000F0E010824AC08B81282F30E039872887BF
:1013E00088859985009751F0288539852130310508
:1013F000E1F5E8E3F0E08FEF808337C0E8E3F0E069
:10140000108233C08B81282F30E03F832E838E8162
:101410009F81009751F02E813F812130310529F5C0
:10142000E5E3F0E08FEF808320C0E5E3F0E0108299
:101430001CC08B81282F30E03D832C838C819D81C3
:10144000009751F02C813D812130310571F4E2E3A8
:10145000F0E08FEF808309C0E2E3F0E0108205C086
:1014600081E0898302C081E0898389812D960FB64E
:10147000F894DEBF0FBECDBFCF91DF910895DF930B
:10148000CF9300D000D00F92CDB7DEB78A836B83A5
:1014900019828A81282F30E03D832C838C819D81A5
:1014A00081309105D1F02C813D81223031052CF421
:1014B0008C819D81009761F01FC02C813D8122307D
:1014C000310581F08C819D818330910581F014C0BC
:1014D000EBE3F0E08B81808311C0E8E3F0E08B81E7
:1014E00080830CC0E5E3F0E08B81808307C0E2E3FA
:1014F000F0E08B81808302C081E0898389810F9035
:101500000F900F900F900F90CF91DF910895DF9380
:10151000CF9300D000D000D0CDB7DEB78A837C83D4
:101520006B8319828B819C81009709F43EC08A816C
:10153000282F30E03E832D838D819E81813091055F
:10154000E1F02D813E81223031052CF48D819E8188
:10155000009761F027C02D813E8122303105A1F036
:101560008D819E8183309105B1F01CC0EBE3F0E0EA
:101570008081EB81FC8180831AC0E8E3F0E0808108
:10158000EB81FC81808313C0E5E3F0E08081EB8197
:10159000FC8180830CC0E2E3F0E08081EB81FC8180
:1015A000808305C081E0898302C081E089838981CD
:1015B00026960FB6F894DEBF0FBECDBFCF91DF9158
:1015C0000895DF93CF93CDB7DEB7C254D0400FB6A6
:1015D000F894DEBF0FBECDBFFE01FF9680E090E025
:1015E000ACE0B2E480839183A283B383FE01FF96D3
:1015F000608171818281938120E030E04AE753E489
:101600000E941702DC01CB018BAF9CAFADAFBEAF28
:101610006BAD7CAD8DAD9EAD20E030E040E85FE38A
:101620000E941D0488232CF481E090E09AAF89AFDA
:1016300041C06BAD7CAD8DAD9EAD20E03FEF4FE77F
:1016400057E40E94BD0318165CF5FE01FF96608109
:1016500071818281938120E030E040E251E40E9478
:101660001702DC01CB01BC01CD010E944100DC016D
:10167000CB019AAF89AF0FC089E190E098AF8FABF3
:101680008FA998AD0197F1F798AF8FAB89AD9AAD5F
:1016900001979AAF89AF89AD9AAD009769F714C0E9
:1016A0006BAD7CAD8DAD9EAD0E944100DC01CB01E8
:1016B0009AAF89AF89AD9AAD9EAB8DAB8DA99EA92E
:1016C0000197F1F79EAB8DAB88E30E941D0D80E082
:1016D00090E0A0E2B2E489AB9AABABABBCAB69A93A
:1016E0007AA98BA99CA92BEA3AEA4AEA5EE30E940E
:1016F0001702DC01CB018DA79EA7AFA7B8AB6DA5E4
:101700007EA58FA598A920E030E040E85FE30E9425
:101710001D0488231CF481E08CA791C06DA57EA5D3
:101720008FA598A920E030E04FE753E40E94BD0365
:1017300018160CF07BC069A97AA98BA99CA920E096
:1017400030E04AE754E40E941103DC01CB0188A792
:1017500099A7AAA7BBA768A579A58AA59BA520E0FC
:1017600030E04AE753E40E941702DC01CB018CA36E
:101770009DA3AEA3BFA36CA17DA18EA19FA120E0DC
:1017800030E040E85FE30E941D0488232CF481E0F0
:1017900090E09BA38AA33FC06CA17DA18EA19FA1D5
:1017A00020E03FEF4FE757E40E94BD0318164CF5C9
:1017B00068A579A58AA59BA520E030E040E251E428
:1017C0000E941702DC01CB01BC01CD010E94410047
:1017D000DC01CB019BA38AA30FC089E190E099A310
:1017E00088A388A199A10197F1F799A388A38AA159
:1017F0009BA101979BA38AA38AA19BA1009769F74C
:1018000024C06CA17DA18EA19FA10E944100DC019A
:10181000CB019BA38AA38AA19BA19F8F8E8F8E8DC4
:101820009F8D0197F1F79F8F8E8F0FC06DA57EA5BD
:101830008FA598A90E944100DC01CB018CA78CA543
:101840008D8F8D8D8A95F1F78D8F8FE00E941D0D04
:1018500080E090E0A0E2B2E4898F9A8FAB8FBC8FDA
:10186000698D7A8D8B8D9C8D20E030E04AE753E4C2
:101870000E941702DC01CB018D8B9E8BAF8BB88F42
:101880006D897E898F89988D20E030E040E85FE3A4
:101890000E941D0488232CF481E090E09C8B8B8BAC
:1018A0003FC06D897E898F89988D20E03FEF4FE79B
:1018B00057E40E94BD0318164CF5698D7A8D8B8D07
:1018C0009C8D20E030E040E251E40E941702DC01F0
:1018D000CB01BC01CD010E944100DC01CB019C8BFE
:1018E0008B8B0FC089E190E09A8B898B89899A89CB
:1018F0000197F1F79A8B898B8B899C8901979C8B37
:101900008B8B8B899C89009769F714C06D897E89C0
:101910008F89988D0E944100DC01CB019C8B8B8BC1
:101920008B899C89988B8F878F8598890197F1F790
:10193000988B8F8781E00E941D0D80E090E0A0E8E9
:10194000BFE38B879C87AD87BE876B857C858D8544
:101950009E8520E030E04AE753E40E941702DC0154
:10196000CB018F839887A987BA876F81788589850E
:101970009A8520E030E040E85FE30E941D04882360
:101980002CF481E090E09E838D833FC06F81788549
:1019900089859A8520E03FEF4FE757E40E94BD0319
:1019A00018164CF56B857C858D859E8520E030E092
:1019B00040E251E40E941702DC01CB01BC01CD01E1
:1019C0000E944100DC01CB019E838D830FC089E121
:1019D00090E09C838B838B819C810197F1F79C83A2
:1019E0008B838D819E8101979E838D838D819E81C6
:1019F000009769F714C06F81788589859A850E9460
:101A00004100DC01CB019E838D838D819E819A8371
:101A1000898389819A810197F1F79A83898386E086
:101A20000E941D0D80E0CE5BDF4F0FB6F894DEBF45
:101A30000FBECDBFCF91DF910895DF93CF93CDB788
:101A4000DEB769970FB6F894DEBF0FBECDBF898FA2
:101A500080E060E040E00E949B0780E061E040E0C1
:101A60000E949B0783E0698D0E943F0A80E062E04C
:101A700041E00E949B0780E090E0A0E8BFE38D8BEF
:101A80009E8BAF8BB88F6D897E898F89988D2BEA5D
:101A90003AEA4AEA5EE30E941702DC01CB01898B35
:101AA0009A8BAB8BBC8B69897A898B899C8920E066
:101AB00030E040E85FE30E941D0488231CF481E0CD
:101AC000888B91C069897A898B899C8920E030E074
:101AD0004FE753E40E94BD0318160CF07BC06D89DC
:101AE0007E898F89988D20E030E04AE754E40E9497
:101AF0001103DC01CB018C879D87AE87BF876C8586
:101B00007D858E859F8520E030E04AE753E40E9482
:101B10001702DC01CB0188879987AA87BB87688574
:101B200079858A859B8520E030E040E85FE30E946C
:101B30001D0488232CF481E090E09F838E833FC0B6
:101B4000688579858A859B8520E03FEF4FE757E4DC
:101B50000E94BD0318164CF56C857D858E859F858A
:101B600020E030E040E251E40E941702DC01CB01AA
:101B7000BC01CD010E944100DC01CB019F838E831B
:101B80000FC089E190E09D838C838C819D810197BA
:101B9000F1F79D838C838E819F8101979F838E8334
:101BA0008E819F81009769F724C0688579858A8531
:101BB0009B850E944100DC01CB019F838E838E8137
:101BC0009F819B838A838A819B810197F1F79B8305
:101BD0008A830FC069897A898B899C890E94410018
:101BE000DC01CB01888B8889898389818A95F1F70B
:101BF000898380E062E040E00E949B0780E0699674
:101C00000FB6F894DEBF0FBECDBFCF91DF91089520
:101C1000DF93CF93CDB7DEB769970FB6F894DEBFE9
:101C20000FBECDBF898F80E060E041E00E949B073E
:101C300080E061E040E00E949B0783E0698D0E94A4
:101C40003F0A80E062E041E00E949B0780E090E074
:101C5000A0E8BFE38D8B9E8BAF8BB88F6D897E899B
:101C60008F89988D2BEA3AEA4AEA5EE30E941702CE
:101C7000DC01CB01898B9A8BAB8BBC8B69897A8910
:101C80008B899C8920E030E040E85FE30E941D04DE
:101C900088231CF481E0888B91C069897A898B89BB
:101CA0009C8920E030E04FE753E40E94BD03181602
:101CB0000CF07BC06D897E898F89988D20E030E0A3
:101CC0004AE754E40E941103DC01CB018C879D8715
:101CD000AE87BF876C857D858E859F8520E030E04F
:101CE0004AE753E40E941702DC01CB0188879987F9
:101CF000AA87BB87688579858A859B8520E030E047
:101D000040E85FE30E941D0488232CF481E090E00A
:101D10009F838E833FC0688579858A859B8520E077
:101D20003FEF4FE757E40E94BD0318164CF56C8552
:101D30007D858E859F8520E030E040E251E40E9461
:101D40001702DC01CB01BC01CD010E944100DC0186
:101D5000CB019F838E830FC089E190E09D838C83AC
:101D60008C819D810197F1F79D838C838E819F816A
:101D700001979F838E838E819F81009769F724C08E
:101D8000688579858A859B850E944100DC01CB01AD
:101D90009F838E838E819F819B838A838A819B818F
:101DA0000197F1F79B838A830FC069897A898B89B0
:101DB0009C890E944100DC01CB01888B8889898342
:101DC00089818A95F1F7898380E062E040E00E9492
:101DD0009B0780E069960FB6F894DEBF0FBECDBFBB
:101DE000CF91DF910895DF93CF9300D000D00F9271
:101DF000CDB7DEB789836A838A818832F8F4898116
:101E0000282F30E03D832C838C819D81813091058A
:101E100031F02C813D812230310531F00AC08A81B8
:101E200080580E941D0D08C08A8180540E941D0D9B
:101E300003C031E03B8304C01B8202C081E08B837E
:101E40008B810F900F900F900F900F90CF91DF919B
:101E50000895DF93CF9300D00F92CDB7DEB79B8369
:101E60008A830EC08981282F30E08A819B81FC0102
:101E7000E20FF31F80810E94080E89818F5F8983A2
:101E80008981282F30E08A819B81FC01E20FF31FBA
:101E90008081882339F780E00F900F900F90CF91C9
:101EA000DF910895DF93CF9300D000D0CDB7DEB798
:101EB0001C821B8214C01A82198206C0000089810C
:101EC0009A8101969A83898389819A8121E0843F4E
:101ED0009207A4F38B819C8101969C838B838B81D9
:101EE0009C8121E0843F920734F30F900F900F9074
:101EF0000F90CF91DF910895DF93CF93CDB7DEB7E9
:101F00000E9447060E94E10A81E066E00E94F30E0B
:101F100080E690E00E94290F82E066E00E94F30EC6
:101F200085E40E94080E8DE40E94080E81E40E9460
:101F3000080E8EE40E94080E0E94520FFFCF2F92CF
:101F40003F924F925F926F927F928F929F92AF9249
:101F5000BF92CF92DF92EF92FF920F931F93CF9396
:101F6000DF93CDB7DEB7CA1BDB0B0FB6F894DEBF2D
:101F70000FBECDBF09942A88398848885F846E8453
:101F80007D848C849B84AA84B984C884DF80EE809D
:101F9000FD800C811B81AA81B981CE0FD11D0FB6A6
:101FA000F894DEBF0FBECDBFED010895F894FFCFCA
:0E1FB00068656C6C6F0000000000000000000F
:00000001FF
