:100000000C942A000C9447000C9447000C94470071
:100010000C9447000C9447000C9447000C94470044
:100020000C9447000C9447000C9447000C94470034
:100030000C9447000C9447000C9447000C94470024
:100040000C9447000C9447000C9447000C94470014
:100050000C94470011241FBECFE5D4E0DEBFCDBF16
:1000600010E0A0E6B0E0EEE2F7E202C005900D92EB
:10007000A63CB107D9F710E0A6ECB0E001C01D9294
:10008000AA3CB107E1F70E9481110C9495130C94DE
:100090000000EF92FF920F931F937B018C0120E0F1
:1000A00030E040E05FE40E94F50388238CF0C80153
:1000B000B70120E030E040E05FE40E94C1010E940F
:1000C00055049B01AC01205030404040504806C0D0
:1000D000C801B7010E9455049B01AC01B901CA01D6
:1000E0001F910F91FF90EF900895A0E0B0E0EBE733
:1000F000F0E00C945E13DC012B01FA019C9192302C
:1001000008F439C1EB018881823008F433C194309E
:1001100069F4843009F02FC111969C91119789815F
:10012000981709F428C1A6EAB0E025C1843009F483
:1001300021C18230A9F4923009F01DC19A01AD01AC
:1001400088E0EA010990AE01E90109929E0181501F
:10015000C1F7E201898111969C918923818308C1AD
:10016000923009F407C112962D903C901397EB0141
:100170008A819B811496AD90BD90CD90DC901797AD
:10018000EC80FD800E811F819101281B390BB90184
:1001900037FF04C066277727621B730B6032710537
:1001A0000CF061C0121613066CF537014801062EDB
:1001B00004C096948794779467940A94D2F721E0C8
:1001C00030E040E050E004C0220F331F441F551FB1
:1001D0006A95D2F721503040404050402E213F21B7
:1001E00040235123211531054105510521F021E01E
:1001F00030E040E050E079018A01E628F72808293C
:1002000019293CC0232BD1F1260E371E350146019A
:10021000062E04C096948794779467940A94D2F734
:1002200021E030E040E050E004C0220F331F441FC3
:10023000551F6A95D2F721503040404050402A2146
:100240003B214C215D21211531054105510521F04E
:1002500021E030E040E050E059016A01A628B728CB
:10026000C828D9280BC0821593052CF01C01AA249C
:10027000BB24650103C0EE24FF24870111969C91E5
:10028000D20111968C91981709F445C0992339F041
:10029000A80197012A193B094C095D0906C0A6016E
:1002A00095012E193F09400B510B57FD08C01182D3
:1002B0003382228224833583468357831DC081E0A5
:1002C00081833382228288279927DC01821B930B4A
:1002D000A40BB50B84839583A683B7830DC0220F2F
:1002E000331F441F551F24833583468357838281E0
:1002F000938101979383828324813581468157813D
:10030000DA01C9010197A109B1098F5F9F4FAF4F72
:10031000BF4328F30BC0918333822282EA0CFB1C7B
:100320000C1D1D1DE482F5820683178383E0808304
:10033000248135814681578157FF1AC0C901AA27F8
:1003400097FDA095BA2F81709070A070B0705695EF
:10035000479537952795822B932BA42BB52B848318
:100360009583A683B7838281938101969383828349
:10037000DF0101C0D201CD01CDB7DEB7E2E10C94BF
:100380007A13A0E2B0E0E7ECF1E00C946A13698321
:100390007A838B839C832D833E834F835887E9E048
:1003A000EE2EF12CEC0EFD1ECE010196B7010E943F
:1003B0007E058E010F5E1F4FCE010596B8010E948B
:1003C0007E058A8991E089278A8BC701B801AE0131
:1003D000475E5F4F0E9475000E94A904A096E6E068
:1003E0000C948613A0E2B0E0E8EFF1E00C946A13FD
:1003F00069837A838B839C832D833E834F835887C5
:10040000F9E0EF2EF12CEC0EFD1ECE010196B701A6
:100410000E947E058E010F5E1F4FCE010596B8012A
:100420000E947E05C701B801AE01475E5F4F0E9482
:1004300075000E94A904A096E6E00C948613A0E241
:10044000B0E0E5E2F2E00C945E1369837A838B837B
:100450009C832D833E834F835887CE010196BE0136
:10046000675F7F4F0E947E05CE010596BE016F5EDD
:100470007F4F0E947E059985923088F0898982306D
:10048000C8F0943019F4823051F404C0843029F457
:10049000923081F486EA90E0C6C0923049F420E0C0
:1004A0009A858A89981321E02A87CE010996BBC0D4
:1004B000823049F420E09A858A89981321E02A8BBA
:1004C000CE014196B0C02D843E844F8458886D88FB
:1004D0007E888F88988CEE24FF248701AA24BB2471
:1004E000650140E050E060E070E0E0E0F0E0C10174
:1004F00081709070892BE9F0E60CF71C081D191D1E
:100500009A01AB012A0D3B1D4C1D5D1D80E090E062
:10051000A0E0B0E0E614F7040805190520F481E036
:1005200090E0A0E0B0E0BA01A901480F591F6A1F8E
:100530007B1FAA0CBB1CCC1CDD1C97FE08C081E0F5
:1005400090E0A0E0B0E0A82AB92ACA2ADB2A3196B6
:10055000E032F10549F0660C771C881C991C569412
:10056000479437942794C3CFFA85EA892B893C892D
:100570008B859C85280F391F2E5F3F4F17C0CA01FE
:1005800081709070892B61F016950795F794E79428
:1005900080E090E0A0E0B0E8E82AF92A0A2B1B2BC3
:1005A00076956795579547952F5F3F4F77FDE7CF36
:1005B0000CC0440F551F661F771F17FD4160EE0CDE
:1005C000FF1C001F111F21503040403090E05907A0
:1005D00090E0690790E4790760F32B8F3C8FDB0193
:1005E000CA018F779070A070B07080349105A1051A
:1005F000B10561F447FD0AC0E114F10401051105DC
:1006000029F0405C5F4F6F4F7F4F40781A8EFE1786
:1006100011F081E08A8F4D8F5E8F6F8F78A383E01A
:10062000898FCE0149960E94A904A096E2E10C941C
:100630007A13A8E1B0E0EFE1F3E00C94661369836C
:100640007A838B839C832D833E834F835887B9E0C5
:10065000EB2EF12CEC0EFD1ECE010196B7010E948F
:100660007E058E010F5E1F4FCE010596B8010E94D8
:100670007E052985223008F47EC03989323010F495
:10068000B8017CC08A859A8989278A87243011F02D
:10069000223031F4231709F06EC066EA70E06EC0B4
:1006A000343039F41D861E861F86188A1C861B86E8
:1006B00004C0323021F484E08987B7015FC02B8504
:1006C0003C858B899C89281B390B3C872B87ED84C3
:1006D000FE840F851889AD88BE88CF88D88CEA142F
:1006E000FB040C051D0540F4EE0CFF1C001F111F40
:1006F000215030403C872B8720E030E040E050E044
:1007000080E090E0A0E0B0E460E070E0EA14FB0478
:100710000C051D0540F0282B392B4A2B5B2BEA18C2
:10072000FB080C091D09B695A79597958795EE0CC2
:10073000FF1C001F111F6F5F7F4F6F31710531F775
:10074000DA01C9018F779070A070B0708034910584
:10075000A105B10561F427FD0AC0E114F10401050A
:10076000110529F0205C3F4F4F4F5F4F20782D87B8
:100770003E874F87588BBE01675F7F4FCB010E943A
:10078000A9046896EAE00C948213A8E1B0E0EBECCF
:10079000F3E00C946A1369837A838B839C832D83A3
:1007A0003E834F83588789E0E82EF12CEC0EFD1E26
:1007B000CE010196B7010E947E058E010F5E1F4F8C
:1007C000CE010596B8010E947E058985823040F0F1
:1007D0008989823028F0C701B8010E94F60501C05E
:1007E0008FEF6896E6E00C948613A8E1B0E0EBEF9B
:1007F000F3E00C946A1369837A838B839C832D8343
:100800003E834F83588789E0E82EF12CEC0EFD1EC5
:10081000CE010196B7010E947E058E010F5E1F4F2B
:10082000CE010596B8010E947E058985823040F090
:100830008989823028F0C701B8010E94F60501C0FD
:100840008FEF6896E6E00C948613A8E1B0E0EBE247
:10085000F4E00C946A1369837A838B839C832D83E1
:100860003E834F83588789E0E82EF12CEC0EFD1E65
:10087000CE010196B7010E947E058E010F5E1F4FCB
:10088000CE010596B8010E947E058985823040F030
:100890008989823028F0C701B8010E94F60501C09D
:1008A00081E06896E6E00C948613ACE0B0E0EBE5FE
:1008B000F4E00C946E1369837A838B839C83CE015E
:1008C0000196BE016B5F7F4F0E947E058D81823055
:1008D00061F1823050F1843021F48E81882351F10E
:1008E0002EC02F81388537FD20C06E812F31310514
:1008F0001CF06623F9F023C08EE190E0821B930B7D
:1009000029853A854B855C8504C056954795379572
:1009100027958A95D2F76623B1F05095409530958A
:1009200021953F4F4F4F5F4F0EC020E030E040E039
:1009300050E009C02FEF3FEF4FEF5FE704C020E02A
:1009400030E040E050E8B901CA012C96E2E00C9496
:100950008A13DF92EF92FF920F931F93FC01E480C2
:10096000F58006811781D1808081823048F480E053
:1009700090E0A0E1B0E0E82AF92A0A2B1B2BA5C0E1
:10098000843009F49FC0823021F4EE24FF248701D3
:1009900005C0E114F1040105110519F4E0E0F0E0EF
:1009A00096C0628173819FEF623879070CF05BC05B
:1009B00022E83FEF261B370B2A3131052CF020E0CF
:1009C00030E040E050E02AC0B801A701022E04C088
:1009D00076956795579547950A94D2F781E090E010
:1009E000A0E0B0E004C0880F991FAA1FBB1F2A9582
:1009F000D2F70197A109B1098E219F21A023B1232C
:100A00000097A105B10521F081E090E0A0E0B0E001
:100A10009A01AB01282B392B4A2B5B2BDA01C90138
:100A20008F779070A070B07080349105A105B105EA
:100A300039F427FF09C0205C3F4F4F4F5F4F04C080
:100A4000215C3F4F4F4F5F4FE0E0F0E02030A0E0EF
:100A50003A07A0E04A07A0E45A0710F0E1E0F0E00E
:100A600079018A0127C06038710564F5FB01E158FE
:100A7000FF4FD801C7018F779070A070B07080349D
:100A80009105A105B10539F4E7FE0DC080E490E0C1
:100A9000A0E0B0E004C08FE390E0A0E0B0E0E80E9A
:100AA000F91E0A1F1B1F17FF05C016950795F7941F
:100AB000E794319687E016950795F794E7948A9521
:100AC000D1F705C0EE24FF248701EFEFF0E06E2F91
:100AD000679566276795902F9F77D794DD24D794E5
:100AE0008E2F8695492F462B582F5D29B701CA01B5
:100AF0001F910F91FF90EF90DF900895FC01DB01B3
:100B0000408151812281622F6F7770E0221F22275E
:100B1000221F9381892F880F822B282F30E0991F65
:100B20009927991F11969C93119721153105A9F5C5
:100B3000411551056105710511F482E037C082E865
:100B40009FEF13969C938E9312979A01AB0167E0E7
:100B5000220F331F441F551F6A95D1F783E08C93F2
:100B60000DC0220F331F441F551F12968D919C916B
:100B70001397019713969C938E931297203080E0E1
:100B8000380780E0480780E4580758F314962D93FF
:100B90003D934D935C93179708952F3F310579F45A
:100BA000411551056105710519F484E08C93089590
:100BB00064FF03C081E08C9312C01C9210C02F57B9
:100BC000304013963C932E93129783E08C9387E0EA
:100BD000440F551F661F771F8A95D1F770641496CE
:100BE0004D935D936D937C93179708951F93DC014C
:100BF000FB019C91923008F447C08081823008F458
:100C000043C0943051F411961C91843099F5818140
:100C1000682F70E0611B71093FC0843021F0923071
:100C200031F48230B9F18181882389F12DC0119688
:100C30001C9111978230F1F081811817D9F4129626
:100C40002D913C911397828193818217930794F0A1
:100C500028173907BCF014968D919D910D90BC9189
:100C6000A02D2481358146815781281739074A07ED
:100C70005B0718F4112341F00AC082179307A407F9
:100C8000B50740F4112319F061E070E005C06FEF83
:100C90007FEF02C060E070E0CB011F910895DF9309
:100CA000CF93CDB7DEB7EAE3F0E080EF8083E7E3F0
:100CB000F0E087E08083E4E3F0E01082E1E3F0E03D
:100CC0008FEF8083EBE3F0E08FEF8083E8E3F0E0E9
:100CD0001082E5E3F0E01082E2E3F0E01082CF91D1
:100CE000DF910895DF93CF93CDB7DEB72E970FB680
:100CF000F894DEBF0FBECDBF8A836B834C8319820D
:100D00008A81843008F015C18B81883008F011C1C8
:100D10008C81882321F08C81813009F00AC18A817D
:100D2000282F30E03E872D878D859E858130910567
:100D300009F451C02D853E85223031052CF48D8576
:100D40009E85009771F0F7C02D853E8522303105D4
:100D500009F47BC08D859E858330910509F4AFC071
:100D6000EAC08C81282F30E03C872B878B859C85BF
:100D70000097C9F02B853C852130310549F5AAE360
:100D8000B0E0EAE3F0E08081482F8B81282F30E04B
:100D900081E090E0022E02C0880F991F0A94E2F7CA
:100DA000842B8C93C8C0AAE3B0E0EAE3F0E0808132
:100DB000482F8B81282F30E081E090E0022E02C086
:100DC000880F991F0A94E2F7809584238C93B3C00F
:100DD00081E08983B0C08C81282F30E03A87298751
:100DE00089859A850097C9F029853A852130310592
:100DF00049F5A7E3B0E0E7E3F0E08081482F8B817D
:100E0000282F30E081E090E0022E02C0880F991F69
:100E10000A94E2F7842B8C938EC0A7E3B0E0E7E35B
:100E2000F0E08081482F8B81282F30E081E090E036
:100E3000022E02C0880F991F0A94E2F7809584233E
:100E40008C9379C081E0898376C08C81282F30E033
:100E500038872F838F8198850097C9F02F81388537
:100E60002130310549F5A4E3B0E0E4E3F0E080810E
:100E7000482F8B81282F30E081E090E0022E02C0C5
:100E8000880F991F0A94E2F7842B8C9354C0A4E333
:100E9000B0E0E4E3F0E08081482F8B81282F30E040
:100EA00081E090E0022E02C0880F991F0A94E2F7B9
:100EB000809584238C933FC081E089833CC08C81E2
:100EC000282F30E03E832D838D819E810097C9F0CD
:100ED0002D813E812130310549F5A1E3B0E0E1E308
:100EE000F0E08081482F8B81282F30E081E090E076
:100EF000022E02C0880F991F0A94E2F7842B8C936C
:100F00001AC0A1E3B0E0E1E3F0E08081482F8B81DB
:100F1000282F30E081E090E0022E02C0880F991F58
:100F20000A94E2F7809584238C9305C081E089833D
:100F300002C081E0898389812E960FB6F894DEBFC6
:100F40000FBECDBFCF91DF910895DF93CF93CDB783
:100F5000DEB72E970FB6F894DEBF0FBECDBF8A83E3
:100F60006B834C8319828A81843008F015C18B8190
:100F7000883008F011C18C81882321F08C81813068
:100F800009F00AC18A81282F30E03E872D878D85A0
:100F90009E858130910509F451C02D853E85223012
:100FA00031052CF48D859E85009771F0F7C02D8555
:100FB0003E852230310509F47BC08D859E858330C6
:100FC000910509F4AFC0EAC08C81282F30E03C873E
:100FD0002B878B859C850097C9F02B853C8521301C
:100FE000310549F5ABE3B0E0EBE3F0E08081482F59
:100FF0008B81282F30E081E090E0022E02C0880F24
:10100000991F0A94E2F7842B8C93C8C0ABE3B0E03D
:10101000EBE3F0E08081482F8B81282F30E081E0E6
:1010200090E0022E02C0880F991F0A94E2F7809583
:1010300084238C93B3C081E08983B0C08C81282F36
:1010400030E03A87298789859A850097C9F02985F4
:101050003A852130310549F5A8E3B0E0E8E3F0E056
:101060008081482F8B81282F30E081E090E0022E94
:1010700002C0880F991F0A94E2F7842B8C938EC0CC
:10108000A8E3B0E0E8E3F0E08081482F8B81282FCF
:1010900030E081E090E0022E02C0880F991F0A9490
:1010A000E2F7809584238C9379C081E0898376C0B0
:1010B0008C81282F30E038872F838F819885009787
:1010C000C9F02F8138852130310549F5A5E3B0E01D
:1010D000E5E3F0E08081482F8B81282F30E081E02C
:1010E00090E0022E02C0880F991F0A94E2F7842B29
:1010F0008C9354C0A5E3B0E0E5E3F0E08081482F95
:101100008B81282F30E081E090E0022E02C0880F12
:10111000991F0A94E2F7809584238C933FC081E065
:1011200089833CC08C81282F30E03E832D838D81C4
:101130009E810097C9F02D813E812130310549F50E
:10114000A2E3B0E0E2E3F0E08081482F8B81282F1A
:1011500030E081E090E0022E02C0880F991F0A94CF
:10116000E2F7842B8C931AC0A2E3B0E0E2E3F0E054
:101170008081482F8B81282F30E081E090E0022E83
:1011800002C0880F991F0A94E2F7809584238C93FC
:1011900005C081E0898302C081E0898389812E9620
:1011A0000FB6F894DEBF0FBECDBFCF91DF9108958B
:1011B000DF93CF93CDB7DEB728970FB6F894DEBF95
:1011C0000FBECDBF8B836C835E834D831A828B8170
:1011D000843008F09EC08C81883008F09AC08D81E0
:1011E0009E81009709F495C08B81282F30E03887C5
:1011F0002F838F81988581309105A1F12F813885CA
:10120000223031052CF48F819885009771F083C0CE
:101210002F8138852230310509F441C08F819885AE
:101220008330910509F458C076C0E9E3F0E080818D
:10123000482F8C81282F30E081E090E0022E02C000
:10124000880F991F0A94E2F7842389838981882370
:1012500021F4ED81FE8110825EC0ED81FE8181E08E
:10126000808359C0E6E3F0E08081482F8C81282FED
:1012700030E081E090E0022E02C0880F991F0A94AE
:10128000E2F7842389838981882321F4ED81FE811B
:10129000108241C0ED81FE8181E080833CC0E3E3A8
:1012A000F0E08081482F8C81282F30E081E090E0B1
:1012B000022E02C0880F991F0A94E2F784238983C3
:1012C0008981882321F4ED81FE81108224C0ED8183
:1012D000FE8181E080831FC0E0E3F0E08081482F41
:1012E0008C81282F30E081E090E0022E02C0880F30
:1012F000991F0A94E2F7842389838981882321F442
:10130000ED81FE81108207C0ED81FE8181E0808346
:1013100002C081E08A838A8128960FB6F894DEBFE6
:101320000FBECDBFCF91DF910895DF93CF93CDB79F
:10133000DEB72D970FB6F894DEBF0FBECDBF8A8300
:101340006B8319828A81843008F087C08B8188235F
:1013500021F08B81813009F080C08A81282F30E014
:101360003D872C878C859D858130910571F12C8579
:101370003D85223031052CF48C859D85009769F0E0
:1013800069C02C853D8522303105B1F18C859D8564
:101390008330910509F447C05DC08B81282F30E070
:1013A0003B872A878A859B85009759F02A853B854C
:1013B0002130310509F053C0EBE3F0E08FEF80837B
:1013C0004EC0EBE3F0E010824AC08B81282F30E062
:1013D0003987288788859985009751F02885398530
:1013E00021303105E1F5E8E3F0E08FEF808337C08D
:1013F000E8E3F0E0108233C08B81282F30E03F8398
:101400002E838E819F81009751F02E813F81213064
:10141000310529F5E5E3F0E08FEF808320C0E5E3B7
:10142000F0E010821CC08B81282F30E03D832C839C
:101430008C819D81009751F02C813D8121303105B7
:1014400071F4E2E3F0E08FEF808309C0E2E3F0E0C3
:10145000108205C081E0898302C081E0898389818F
:101460002D960FB6F894DEBF0FBECDBFCF91DF91A2
:101470000895DF93CF9300D000D00F92CDB7DEB7A1
:101480008A836B8319828A81282F30E03D832C83E5
:101490008C819D8181309105D1F02C813D8122305C
:1014A00031052CF48C819D81009761F01FC02C8147
:1014B0003D812230310581F08C819D818330910501
:1014C00081F014C0EBE3F0E08B81808311C0E8E38E
:1014D000F0E08B8180830CC0E5E3F0E08B818083BA
:1014E00007C0E2E3F0E08B81808302C081E0898362
:1014F00089810F900F900F900F900F90CF91DF91F7
:101500000895DF93CF9300D000D000D0CDB7DEB7E1
:101510008A837C836B8319828B819C81009709F479
:101520003EC08A81282F30E03E832D838D819E81AD
:1015300081309105E1F02D813E81223031052CF47E
:101540008D819E81009761F027C02D813E812230E0
:101550003105A1F08D819E8183309105B1F01CC0D1
:10156000EBE3F0E08081EB81FC8180831AC0E8E34B
:10157000F0E08081EB81FC81808313C0E5E3F0E043
:101580008081EB81FC8180830CC0E2E3F0E080810C
:10159000EB81FC81808305C081E0898302C081E00A
:1015A0008983898126960FB6F894DEBF0FBECDBF22
:1015B000CF91DF910895DF93CF93CDB7DEB7C254BB
:1015C000D0400FB6F894DEBF0FBECDBFFE01FF9630
:1015D00080E090E0ACE0B2E480839183A283B383A7
:1015E000FE01FF96608171818281938120E030E06D
:1015F0004AEF54E40E941F02DC01CB018BAF9CAF89
:10160000ADAFBEAF6BAD7CAD8DAD9EAD20E030E03B
:1016100040E85FE30E94250488232CF481E090E0F9
:101620009AAF89AF41C06BAD7CAD8DAD9EAD20E072
:101630003FEF4FE757E40E94C50318165CF5FE0123
:10164000FF96608171818281938120E030E040E2E9
:1016500051E40E941F02DC01CB01BC01CD010E94BC
:101660004900DC01CB019AAF89AF0FC088EC90E054
:1016700098AF8FAB8FA998AD0197F1F798AF8FAB6B
:1016800089AD9AAD01979AAF89AF89AD9AAD0097B0
:1016900069F714C06BAD7CAD8DAD9EAD0E94490065
:1016A000DC01CB019AAF89AF89AD9AAD9EAB8DAB12
:1016B0008DA99EA90197F1F79EAB8DAB88E30E949F
:1016C000170D80E090E0A0E2B2E489AB9AABABAB3F
:1016D000BCAB69A97AA98BA99CA92BEA3AEA4AE290
:1016E00050E40E941F02DC01CB018DA79EA7AFA78B
:1016F000B8AB6DA57EA58FA598A920E030E040E8A5
:101700005FE30E94250488231CF481E08CA791C02C
:101710006DA57EA58FA598A920E030E04FE753E4A2
:101720000E94C50318160CF07BC069A97AA98BA981
:101730009CA920E030E04AE754E40E941903DC0150
:10174000CB0188A799A7AAA7BBA768A579A58AA551
:101750009BA520E030E04AEF54E40E941F02DC0128
:10176000CB018CA39DA3AEA3BFA36CA17DA18EA131
:101770009FA120E030E040E85FE30E942504882339
:101780002CF481E090E09BA38AA33FC06CA17DA1D3
:101790008EA19FA120E03FEF4FE757E40E94C503D1
:1017A00018164CF568A579A58AA59BA520E030E020
:1017B00040E251E40E941F02DC01CB01BC01CD01DB
:1017C0000E944900DC01CB019BA38AA30FC088ECD7
:1017D00090E099A388A388A199A10197F1F799A313
:1017E00088A38AA19BA101979BA38AA38AA19BA1FD
:1017F000009769F724C06CA17DA18EA19FA10E94D2
:101800004900DC01CB019BA38AA38AA19BA19F8FE6
:101810008E8F8E8D9F8D0197F1F79F8F8E8F0FC0CA
:101820006DA57EA58FA598A90E944900DC01CB017A
:101830008CA78CA58D8F8D8D8A95F1F78D8F8FE07C
:101840000E94170D80E090E0A0E2B2E4898F9A8FA9
:10185000AB8FBC8F698D7A8D8B8D9C8D20E030E0B5
:101860004AEF54E40E941F02DC01CB018D8B9E8B5A
:10187000AF8BB88F6D897E898F89988D20E030E09D
:1018800040E85FE30E94250488232CF481E090E087
:101890009C8B8B8B3FC06D897E898F89988D20E0D2
:1018A0003FEF4FE757E40E94C50318164CF5698DCA
:1018B0007A8D8B8D9C8D20E030E040E251E40E94D7
:1018C0001F02DC01CB01BC01CD010E944900DC01FB
:1018D000CB019C8B8B8B0FC088EC90E09A8B898B13
:1018E00089899A890197F1F79A8B898B8B899C89D1
:1018F00001979C8B8B8B8B899C89009769F714C00F
:101900006D897E898F89988D0E944900DC01CB0109
:101910009C8B8B8B8B899C89988B8F878F859889E3
:101920000197F1F7988B8F8781E00E94170D80E077
:1019300090E0A0E8BFE38B879C87AD87BE876B856F
:101940007C858D859E8520E030E04AEF54E40E943E
:101950001F02DC01CB018F839887A987BA876F812B
:10196000788589859A8520E030E040E85FE30E9431
:10197000250488232CF481E090E09E838D833FC072
:101980006F81788589859A8520E03FEF4FE757E49E
:101990000E94C50318164CF56B857C858D859E8548
:1019A00020E030E040E251E40E941F02DC01CB0164
:1019B000BC01CD010E944900DC01CB019E838D83D7
:1019C0000FC088EC90E09C838B838B819C81019776
:1019D000F1F79C838B838D819E8101979E838D83FC
:1019E0008D819E81009769F714C06F817885898504
:1019F0009A850E944900DC01CB019E838D838D81F5
:101A00009E819A83898389819A810197F1F79A83CC
:101A1000898386E00E94170D80E0CE5BDF4F0FB612
:101A2000F894DEBF0FBECDBFCF91DF910895DF9355
:101A3000CF93CDB7DEB769970FB6F894DEBF0FBE70
:101A4000CDBF898F81E060E040E00E94A50781E082
:101A500061E040E00E94A50783E0698D0E94390A99
:101A600081E062E041E00E94A50780E090E0A0E80C
:101A7000BFE38D8B9E8BAF8BB88F6D897E898F89ED
:101A8000988D2BEA3AEA4AE250E40E941F02DC01F8
:101A9000CB01898B9A8BAB8BBC8B69897A898B89BB
:101AA0009C8920E030E040E85FE30E942504882321
:101AB0001CF481E0888B91C069897A898B899C8923
:101AC00020E030E04FE753E40E94C50318160CF005
:101AD0007BC06D897E898F89988D20E030E04AE750
:101AE00054E40E941903DC01CB018C879D87AE87EB
:101AF000BF876C857D858E859F8520E030E04AEF2D
:101B000054E40E941F02DC01CB0188879987AA87D1
:101B1000BB87688579858A859B8520E030E040E831
:101B20005FE30E94250488232CF481E090E09F83EA
:101B30008E833FC0688579858A859B8520E03FEF4D
:101B40004FE757E40E94C50318164CF56C857D8558
:101B50008E859F8520E030E040E251E40E941F0224
:101B6000DC01CB01BC01CD010E944900DC01CB01AD
:101B70009F838E830FC088EC90E09D838C838C8143
:101B80009D810197F1F79D838C838E819F810197C1
:101B90009F838E838E819F81009769F724C068851B
:101BA00079858A859B850E944900DC01CB019F8352
:101BB0008E838E819F819B838A838A819B810197FB
:101BC000F1F79B838A830FC069897A898B899C8905
:101BD0000E944900DC01CB01888B88898983898137
:101BE0008A95F1F7898381E062E040E00E94A507D1
:101BF00080E069960FB6F894DEBF0FBECDBFCF91DF
:101C0000DF910895DF93CF93CDB7DEB769970FB615
:101C1000F894DEBF0FBECDBF898F81E060E041E068
:101C20000E94A50781E061E040E00E94A50783E0F3
:101C3000698D0E94390A81E062E041E00E94A507B7
:101C400080E090E0A0E8BFE38D8B9E8BAF8BB88FD8
:101C50006D897E898F89988D2BEA3AEA4AE250E4B1
:101C60000E941F02DC01CB01898B9A8BAB8BBC8B52
:101C700069897A898B899C8920E030E040E85FE3BC
:101C80000E94250488231CF481E0888B91C0698917
:101C90007A898B899C8920E030E04FE753E40E94E9
:101CA000C50318160CF07BC06D897E898F89988DCD
:101CB00020E030E04AE754E40E941903DC01CB0144
:101CC0008C879D87AE87BF876C857D858E859F8538
:101CD00020E030E04AEF54E40E941F02DC01CB0117
:101CE00088879987AA87BB87688579858A859B8538
:101CF00020E030E040E85FE30E94250488232CF4D4
:101D000081E090E09F838E833FC0688579858A85D6
:101D10009B8520E03FEF4FE757E40E94C50318166C
:101D20004CF56C857D858E859F8520E030E040E216
:101D300051E40E941F02DC01CB01BC01CD010E94D5
:101D40004900DC01CB019F838E830FC088EC90E0BB
:101D50009D838C838C819D810197F1F79D838C837A
:101D60008E819F8101979F838E838E819F810097B3
:101D700069F724C0688579858A859B850E9449001A
:101D8000DC01CB019F838E838E819F819B838A831D
:101D90008A819B810197F1F79B838A830FC06989B0
:101DA0007A898B899C890E944900DC01CB01888B50
:101DB0008889898389818A95F1F7898381E062E046
:101DC00040E00E94A50780E069960FB6F894DEBF58
:101DD0000FBECDBFCF91DF910895DF93CF9300D099
:101DE00000D00F92CDB7DEB789836A838A818832AB
:101DF000F8F48981282F30E03D832C838C819D81EC
:101E00008130910531F02C813D812230310531F056
:101E10000AC08A8180580E94170D08C08A818054A8
:101E20000E94170D03C031E03B8304C01B8202C037
:101E300081E08B838B810F900F900F900F900F900C
:101E4000CF91DF910895DF93CF9300D00F92CDB75C
:101E5000DEB79B838A830EC08981282F30E08A8178
:101E60009B81FC01E20FF31F80810E94020E898199
:101E70008F5F89838981282F30E08A819B81FC01D3
:101E8000E20FF31F8081882339F780E00F900F90D5
:101E90000F90CF91DF910895DF93CF93CDB7DEB749
:101EA0002E970FB6F894DEBF0FBECDBF81E00E9423
:101EB000170D80E090E0A0E8BFE38B879C87AD879B
:101EC000BE876B857C858D859E8520E030E04AEF5E
:101ED00054E40E941F02DC01CB018F839887A987FD
:101EE000BA876F81788589859A8520E030E040E85F
:101EF0005FE30E94250488232CF481E090E09E8318
:101F00008D833FC06F81788589859A8520E03FEF7A
:101F10004FE757E40E94C50318164CF56B857C8586
:101F20008D859E8520E030E040E251E40E941F0252
:101F3000DC01CB01BC01CD010E944900DC01CB01D9
:101F40009E838D830FC088EC90E09C838B838B8174
:101F50009C810197F1F79C838B838D819E810197F2
:101F60009E838D838D819E81009769F714C06F8158
:101F7000788589859A850E944900DC01CB019E8382
:101F80008D838D819E819A83898389819A8101972E
:101F9000F1F79A83898380E02E960FB6F894DEBF1E
:101FA0000FBECDBFCF91DF910895DF93CF9300D0C7
:101FB00000D00F92CDB7DEB78A837C836B838B8191
:101FC0009C81009741F18A81883028F58A81882F89
:101FD00090E00896880F991F880F991F880F991F06
:101FE0000E94170D19820EC08981282F30E08B8145
:101FF0009C81FC01E20FF31F80810E94020E898107
:102000008F5F89838981883078F381E060E00E9466
:10201000ED0E1D8202C081E08D838D810F900F90A7
:102020000F900F900F90CF91DF910895DF93CF9392
:102030000F92CDB7DEB7198280E060E041E00E94E8
:10204000720680E061E041E00E94720680E062E09A
:1020500041E00E94720680E063E041E00E94720667
:1020600080E064E040E00E94720680E065E040E0CD
:102070000E94720680E066E040E00E94720680E006
:1020800067E040E00E94720680E060E041E00E946C
:10209000A50780E061E041E00E94A50780E062E0E2
:1020A00041E00E94A50780E063E041E00E94A507AF
:1020B00080E064E041E00E94A50780E065E041E047
:1020C0000E94A50780E066E041E00E94A50780E04D
:1020D00067E041E00E94A50789810F90CF91DF91D1
:1020E0000895DF93CF93CDB7DEB765970FB6F89419
:1020F000DEBF0FBECDBF9D8B8C8B1A8A1B8A1F86BD
:102100008C899D89009709F4F0C0EC89FD898FEFD7
:102110008083198AE5C08989882F90E0FC01E25408
:10212000FF4F908180E0692F40E00E94A507188A48
:10213000C1C08889882F90E0FC01EE53FF4F908149
:102140009E012D5E3F4F80E0692FA9010E94D808B3
:102150008B89882309F0ABC080E090E0A0EAB1E46D
:102160008B879C87AD87BE876B857C858D859E859B
:1021700020E030E04AE753E40E941F02DC01CB017B
:102180008F839887A987BA876F81788589859A8593
:1021900020E030E040E85FE30E94250488232CF42F
:1021A00081E090E09E838D833FC06F817885898533
:1021B0009A8520E03FEF4FE757E40E94C5031816C9
:1021C0004CF56B857C858D859E8520E030E040E276
:1021D00051E40E941F02DC01CB01BC01CD010E9431
:1021E0004900DC01CB019E838D830FC089E190E023
:1021F0009C838B838B819C810197F1F79C838B83DC
:102200008D819E8101979E838D838D819E81009714
:1022100069F714C06F81788589859A850E94490085
:10222000DC01CB019E838D838D819E819A8389837E
:1022300089819A810197F1F79A8389838889882F08
:1022400090E0FC01EE53FF4F90819E012D5E3F4FC9
:1022500080E0692FA9010E94D8080FC08889882FC3
:1022600090E0FC01EE53FF4F90819E012D5E3F4FA9
:1022700080E0692FA9010E94D8088B89882371F317
:102280008989482F50E08889282F30E0CA01880FBB
:10229000991F880F991F820F931FFC01E255FF4F72
:1022A0008081EC89FD89808381E08F8707C08889E0
:1022B0008F5F888B8889843008F43BCF8989882F89
:1022C00090E0FC01E254FF4F908180E0692F41E0F3
:1022D0000E94A5078F85813051F089898F5F898B96
:1022E0008989843008F417CF02C081E08A8B8A89FB
:1022F00065960FB6F894DEBF0FBECDBFCF91DF91CC
:102300000895DF93CF93CDB7DEB7E8970FB6F89473
:10231000DEBF0FBECDBF1DA61CA6CE018F969DAB06
:102320008CABE1EAF0E0FFABEEABF5E0F8AFEEA985
:10233000FFA900808EA99FA901969FAB8EABECA947
:10234000FDA900828CA99DA901969DAB8CAB98AD8F
:10235000915098AFE8ADEE2351F70E944F060E94CE
:10236000DB0A0E94161080E690E00E94230F80E0B6
:1023700090E0AAE7B4E48FA398A7A9A7BAA76FA192
:1023800078A589A59AA520E030E04AE753E40E94A9
:102390001F02DC01CB018BA39CA3ADA3BEA36BA149
:1023A0007CA18DA19EA120E030E040E85FE30E9487
:1023B000250488232CF481E090E09AA389A33FC0F0
:1023C0006BA17CA18DA19EA120E03FEF4FE757E4D8
:1023D0000E94C50318164CF56FA178A589A59AA58A
:1023E00020E030E040E251E40E941F02DC01CB011A
:1023F000BC01CD010E944900DC01CB019AA389A355
:102400000FC089E190E098A38F8F8F8D98A10197DD
:10241000F1F798A38F8F89A19AA101979AA389A315
:1024200089A19AA1009769F714C06BA17CA18DA125
:102430009EA10E944900DC01CB019AA389A389A136
:102440009AA19E8F8D8F8D8D9E8D0197F1F79E8F16
:102450008D8F0E944C0FCE018E960E9471108EA51A
:102460008F3F89F08AE20E94020E8BA5882F90E0B0
:102470002EA5FC01EA53FF4F20838BA58F5F8BA70E
:102480008DA58F5F8DA78DA5843029F71BA611C15F
:102490008BA5882F90E0FC01EA53FF4F40818BA56C
:1024A000282F30E0CE018F96FC01E20FF31F8081D0
:1024B000481709F07BC00E944C0F8FE690E00E9405
:1024C000230F80E090E0AAE7B4E4898F9A8FAB8F66
:1024D000BC8F698D7A8D8B8D9C8D20E030E04AE732
:1024E00053E40E941F02DC01CB018D8B9E8BAF8BCE
:1024F000B88F6D897E898F89988D20E030E040E823
:102500005FE30E94250488232CF481E090E09C8BFB
:102510008B8B3FC06D897E898F89988D20E03FEF3E
:102520004FE757E40E94C50318164CF5698D7A8D64
:102530008B8D9C8D20E030E040E251E40E941F0230
:10254000DC01CB01BC01CD010E944900DC01CB01C3
:102550009C8B8B8B0FC089E190E09A8B898B89894A
:102560009A890197F1F79A8B898B8B899C890197BE
:102570009C8B8B8B8B899C89009769F714C06D8924
:102580007E898F89988D0E944900DC01CB019C8B4C
:102590008B8B8B899C89988B8F878F8598890197E6
:1025A000F1F7988B8F870E944C0F55CF80E890E011
:1025B0000E94230F82E060E00E94ED0E80E990E02F
:1025C0000E94230F80E090E0AAE7B4E48B879C8709
:1025D000AD87BE876B857C858D859E8520E030E04C
:1025E0004AE753E40E941F02DC01CB018F839887E6
:1025F000A987BA876F81788589859A8520E030E040
:1026000040E85FE30E94250488232CF481E090E0F9
:102610009E838D833FC06F81788589859A8520E070
:102620003FEF4FE757E40E94C50318164CF56B8542
:102630007C858D859E8520E030E040E251E40E945B
:102640001F02DC01CB01BC01CD010E944900DC016D
:10265000CB019E838D830FC089E190E09C838B83A7
:102660008B819C810197F1F79C838B838D819E8167
:1026700001979E838D838D819E81009769F714C099
:102680006F81788589859A850E944900DC01CB019C
:102690009E838D838D819E819A83898389819A818E
:1026A0000197F1F79A8389830E944C0F8BA58F5F66
:1026B0008BA78BA5843008F4EBCECDCE2F923F9222
:1026C0004F925F926F927F928F929F92AF92BF9242
:1026D000CF92DF92EF92FF920F931F93CF93DF93EE
:1026E000CDB7DEB7CA1BDB0B0FB6F894DEBF0FBE4B
:1026F000CDBF09942A88398848885F846E847D8498
:102700008C849B84AA84B984C884DF80EE80FD8099
:102710000C811B81AA81B981CE0FD11D0FB6F8940F
:0E272000DEBF0FBECDBFED010895F894FFCFD0
:10272E00656E7465722070617373776F72640043A7
:10273E006F72726563742050617373776F72640089
:10274E0077726F6E672050617373776F72642C00AF
:10275E00706C656173652074727920616761696E52
:10276E00003030303000000000000000000037382C
:10277E00392F3435362A3132332D63303D2B00015B
:06278E000203040506072A
:00000001FF
